{
  "contractName": "DeflyNFT",
  "abi": [
    {
      "inputs": [
        {
          "internalType": "string",
          "name": "deflyName",
          "type": "string"
        },
        {
          "internalType": "string",
          "name": "DeflySymbol",
          "type": "string"
        },
        {
          "internalType": "uint256",
          "name": "nftPrice",
          "type": "uint256"
        },
        {
          "internalType": "uint256",
          "name": "totalSupply",
          "type": "uint256"
        },
        {
          "internalType": "address",
          "name": "organiser",
          "type": "address"
        },
        {
          "internalType": "string",
          "name": "fileUrl",
          "type": "string"
        }
      ],
      "stateMutability": "nonpayable",
      "type": "constructor"
    },
    {
      "anonymous": false,
      "inputs": [
        {
          "indexed": true,
          "internalType": "address",
          "name": "owner",
          "type": "address"
        },
        {
          "indexed": true,
          "internalType": "address",
          "name": "approved",
          "type": "address"
        },
        {
          "indexed": true,
          "internalType": "uint256",
          "name": "tokenId",
          "type": "uint256"
        }
      ],
      "name": "Approval",
      "type": "event"
    },
    {
      "anonymous": false,
      "inputs": [
        {
          "indexed": true,
          "internalType": "address",
          "name": "owner",
          "type": "address"
        },
        {
          "indexed": true,
          "internalType": "address",
          "name": "operator",
          "type": "address"
        },
        {
          "indexed": false,
          "internalType": "bool",
          "name": "approved",
          "type": "bool"
        }
      ],
      "name": "ApprovalForAll",
      "type": "event"
    },
    {
      "anonymous": false,
      "inputs": [
        {
          "indexed": true,
          "internalType": "bytes32",
          "name": "role",
          "type": "bytes32"
        },
        {
          "indexed": true,
          "internalType": "bytes32",
          "name": "previousAdminRole",
          "type": "bytes32"
        },
        {
          "indexed": true,
          "internalType": "bytes32",
          "name": "newAdminRole",
          "type": "bytes32"
        }
      ],
      "name": "RoleAdminChanged",
      "type": "event"
    },
    {
      "anonymous": false,
      "inputs": [
        {
          "indexed": true,
          "internalType": "bytes32",
          "name": "role",
          "type": "bytes32"
        },
        {
          "indexed": true,
          "internalType": "address",
          "name": "account",
          "type": "address"
        },
        {
          "indexed": true,
          "internalType": "address",
          "name": "sender",
          "type": "address"
        }
      ],
      "name": "RoleGranted",
      "type": "event"
    },
    {
      "anonymous": false,
      "inputs": [
        {
          "indexed": true,
          "internalType": "bytes32",
          "name": "role",
          "type": "bytes32"
        },
        {
          "indexed": true,
          "internalType": "address",
          "name": "account",
          "type": "address"
        },
        {
          "indexed": true,
          "internalType": "address",
          "name": "sender",
          "type": "address"
        }
      ],
      "name": "RoleRevoked",
      "type": "event"
    },
    {
      "anonymous": false,
      "inputs": [
        {
          "indexed": true,
          "internalType": "address",
          "name": "from",
          "type": "address"
        },
        {
          "indexed": true,
          "internalType": "address",
          "name": "to",
          "type": "address"
        },
        {
          "indexed": true,
          "internalType": "uint256",
          "name": "tokenId",
          "type": "uint256"
        }
      ],
      "name": "Transfer",
      "type": "event"
    },
    {
      "inputs": [],
      "name": "DEFAULT_ADMIN_ROLE",
      "outputs": [
        {
          "internalType": "bytes32",
          "name": "",
          "type": "bytes32"
        }
      ],
      "stateMutability": "view",
      "type": "function"
    },
    {
      "inputs": [],
      "name": "MINTER_ROLE",
      "outputs": [
        {
          "internalType": "bytes32",
          "name": "",
          "type": "bytes32"
        }
      ],
      "stateMutability": "view",
      "type": "function"
    },
    {
      "inputs": [
        {
          "internalType": "address",
          "name": "to",
          "type": "address"
        },
        {
          "internalType": "uint256",
          "name": "tokenId",
          "type": "uint256"
        }
      ],
      "name": "approve",
      "outputs": [],
      "stateMutability": "nonpayable",
      "type": "function"
    },
    {
      "inputs": [
        {
          "internalType": "address",
          "name": "owner",
          "type": "address"
        }
      ],
      "name": "balanceOf",
      "outputs": [
        {
          "internalType": "uint256",
          "name": "",
          "type": "uint256"
        }
      ],
      "stateMutability": "view",
      "type": "function"
    },
    {
      "inputs": [],
      "name": "baseURI",
      "outputs": [
        {
          "internalType": "string",
          "name": "",
          "type": "string"
        }
      ],
      "stateMutability": "view",
      "type": "function"
    },
    {
      "inputs": [
        {
          "internalType": "uint256",
          "name": "tokenId",
          "type": "uint256"
        }
      ],
      "name": "getApproved",
      "outputs": [
        {
          "internalType": "address",
          "name": "",
          "type": "address"
        }
      ],
      "stateMutability": "view",
      "type": "function"
    },
    {
      "inputs": [
        {
          "internalType": "bytes32",
          "name": "role",
          "type": "bytes32"
        }
      ],
      "name": "getRoleAdmin",
      "outputs": [
        {
          "internalType": "bytes32",
          "name": "",
          "type": "bytes32"
        }
      ],
      "stateMutability": "view",
      "type": "function"
    },
    {
      "inputs": [
        {
          "internalType": "bytes32",
          "name": "role",
          "type": "bytes32"
        },
        {
          "internalType": "uint256",
          "name": "index",
          "type": "uint256"
        }
      ],
      "name": "getRoleMember",
      "outputs": [
        {
          "internalType": "address",
          "name": "",
          "type": "address"
        }
      ],
      "stateMutability": "view",
      "type": "function"
    },
    {
      "inputs": [
        {
          "internalType": "bytes32",
          "name": "role",
          "type": "bytes32"
        }
      ],
      "name": "getRoleMemberCount",
      "outputs": [
        {
          "internalType": "uint256",
          "name": "",
          "type": "uint256"
        }
      ],
      "stateMutability": "view",
      "type": "function"
    },
    {
      "inputs": [
        {
          "internalType": "bytes32",
          "name": "role",
          "type": "bytes32"
        },
        {
          "internalType": "address",
          "name": "account",
          "type": "address"
        }
      ],
      "name": "grantRole",
      "outputs": [],
      "stateMutability": "nonpayable",
      "type": "function"
    },
    {
      "inputs": [
        {
          "internalType": "bytes32",
          "name": "role",
          "type": "bytes32"
        },
        {
          "internalType": "address",
          "name": "account",
          "type": "address"
        }
      ],
      "name": "hasRole",
      "outputs": [
        {
          "internalType": "bool",
          "name": "",
          "type": "bool"
        }
      ],
      "stateMutability": "view",
      "type": "function"
    },
    {
      "inputs": [
        {
          "internalType": "address",
          "name": "owner",
          "type": "address"
        },
        {
          "internalType": "address",
          "name": "operator",
          "type": "address"
        }
      ],
      "name": "isApprovedForAll",
      "outputs": [
        {
          "internalType": "bool",
          "name": "",
          "type": "bool"
        }
      ],
      "stateMutability": "view",
      "type": "function"
    },
    {
      "inputs": [],
      "name": "name",
      "outputs": [
        {
          "internalType": "string",
          "name": "",
          "type": "string"
        }
      ],
      "stateMutability": "view",
      "type": "function"
    },
    {
      "inputs": [
        {
          "internalType": "uint256",
          "name": "tokenId",
          "type": "uint256"
        }
      ],
      "name": "ownerOf",
      "outputs": [
        {
          "internalType": "address",
          "name": "",
          "type": "address"
        }
      ],
      "stateMutability": "view",
      "type": "function"
    },
    {
      "inputs": [
        {
          "internalType": "bytes32",
          "name": "role",
          "type": "bytes32"
        },
        {
          "internalType": "address",
          "name": "account",
          "type": "address"
        }
      ],
      "name": "renounceRole",
      "outputs": [],
      "stateMutability": "nonpayable",
      "type": "function"
    },
    {
      "inputs": [
        {
          "internalType": "bytes32",
          "name": "role",
          "type": "bytes32"
        },
        {
          "internalType": "address",
          "name": "account",
          "type": "address"
        }
      ],
      "name": "revokeRole",
      "outputs": [],
      "stateMutability": "nonpayable",
      "type": "function"
    },
    {
      "inputs": [
        {
          "internalType": "address",
          "name": "from",
          "type": "address"
        },
        {
          "internalType": "address",
          "name": "to",
          "type": "address"
        },
        {
          "internalType": "uint256",
          "name": "tokenId",
          "type": "uint256"
        }
      ],
      "name": "safeTransferFrom",
      "outputs": [],
      "stateMutability": "nonpayable",
      "type": "function"
    },
    {
      "inputs": [
        {
          "internalType": "address",
          "name": "from",
          "type": "address"
        },
        {
          "internalType": "address",
          "name": "to",
          "type": "address"
        },
        {
          "internalType": "uint256",
          "name": "tokenId",
          "type": "uint256"
        },
        {
          "internalType": "bytes",
          "name": "_data",
          "type": "bytes"
        }
      ],
      "name": "safeTransferFrom",
      "outputs": [],
      "stateMutability": "nonpayable",
      "type": "function"
    },
    {
      "inputs": [
        {
          "internalType": "address",
          "name": "operator",
          "type": "address"
        },
        {
          "internalType": "bool",
          "name": "approved",
          "type": "bool"
        }
      ],
      "name": "setApprovalForAll",
      "outputs": [],
      "stateMutability": "nonpayable",
      "type": "function"
    },
    {
      "inputs": [
        {
          "internalType": "bytes4",
          "name": "interfaceId",
          "type": "bytes4"
        }
      ],
      "name": "supportsInterface",
      "outputs": [
        {
          "internalType": "bool",
          "name": "",
          "type": "bool"
        }
      ],
      "stateMutability": "view",
      "type": "function"
    },
    {
      "inputs": [],
      "name": "symbol",
      "outputs": [
        {
          "internalType": "string",
          "name": "",
          "type": "string"
        }
      ],
      "stateMutability": "view",
      "type": "function"
    },
    {
      "inputs": [
        {
          "internalType": "uint256",
          "name": "index",
          "type": "uint256"
        }
      ],
      "name": "tokenByIndex",
      "outputs": [
        {
          "internalType": "uint256",
          "name": "",
          "type": "uint256"
        }
      ],
      "stateMutability": "view",
      "type": "function"
    },
    {
      "inputs": [
        {
          "internalType": "address",
          "name": "owner",
          "type": "address"
        },
        {
          "internalType": "uint256",
          "name": "index",
          "type": "uint256"
        }
      ],
      "name": "tokenOfOwnerByIndex",
      "outputs": [
        {
          "internalType": "uint256",
          "name": "",
          "type": "uint256"
        }
      ],
      "stateMutability": "view",
      "type": "function"
    },
    {
      "inputs": [
        {
          "internalType": "uint256",
          "name": "tokenId",
          "type": "uint256"
        }
      ],
      "name": "tokenURI",
      "outputs": [
        {
          "internalType": "string",
          "name": "",
          "type": "string"
        }
      ],
      "stateMutability": "view",
      "type": "function"
    },
    {
      "inputs": [],
      "name": "totalSupply",
      "outputs": [
        {
          "internalType": "uint256",
          "name": "",
          "type": "uint256"
        }
      ],
      "stateMutability": "view",
      "type": "function"
    },
    {
      "inputs": [
        {
          "internalType": "address",
          "name": "from",
          "type": "address"
        },
        {
          "internalType": "address",
          "name": "to",
          "type": "address"
        },
        {
          "internalType": "uint256",
          "name": "tokenId",
          "type": "uint256"
        }
      ],
      "name": "transferFrom",
      "outputs": [],
      "stateMutability": "nonpayable",
      "type": "function"
    },
    {
      "inputs": [
        {
          "internalType": "uint256",
          "name": "numOfNfts",
          "type": "uint256"
        },
        {
          "internalType": "address",
          "name": "operator",
          "type": "address"
        }
      ],
      "name": "bulkMintNFTs",
      "outputs": [],
      "stateMutability": "nonpayable",
      "type": "function"
    },
    {
      "inputs": [
        {
          "internalType": "address",
          "name": "buyer",
          "type": "address"
        }
      ],
      "name": "transferNFT",
      "outputs": [],
      "stateMutability": "nonpayable",
      "type": "function"
    },
    {
      "inputs": [
        {
          "internalType": "address",
          "name": "buyer",
          "type": "address"
        },
        {
          "internalType": "uint256",
          "name": "salenftId",
          "type": "uint256"
        }
      ],
      "name": "secondaryTransferNFT",
      "outputs": [],
      "stateMutability": "nonpayable",
      "type": "function"
    },
    {
      "inputs": [
        {
          "internalType": "uint256",
          "name": "nftId",
          "type": "uint256"
        },
        {
          "internalType": "uint256",
          "name": "sellingPrice",
          "type": "uint256"
        },
        {
          "internalType": "address",
          "name": "operator",
          "type": "address"
        }
      ],
      "name": "setSaleDetails",
      "outputs": [],
      "stateMutability": "nonpayable",
      "type": "function"
    },
    {
      "inputs": [],
      "name": "getNFTPrice",
      "outputs": [
        {
          "internalType": "uint256",
          "name": "",
          "type": "uint256"
        }
      ],
      "stateMutability": "view",
      "type": "function"
    },
    {
      "inputs": [],
      "name": "getOrganiser",
      "outputs": [
        {
          "internalType": "address",
          "name": "",
          "type": "address"
        }
      ],
      "stateMutability": "view",
      "type": "function"
    },
    {
      "inputs": [],
      "name": "nftCounts",
      "outputs": [
        {
          "internalType": "uint256",
          "name": "",
          "type": "uint256"
        }
      ],
      "stateMutability": "view",
      "type": "function"
    },
    {
      "inputs": [],
      "name": "getNextSalenftId",
      "outputs": [
        {
          "internalType": "uint256",
          "name": "",
          "type": "uint256"
        }
      ],
      "stateMutability": "view",
      "type": "function"
    },
    {
      "inputs": [
        {
          "internalType": "uint256",
          "name": "nftId",
          "type": "uint256"
        }
      ],
      "name": "getSellingPrice",
      "outputs": [
        {
          "internalType": "uint256",
          "name": "",
          "type": "uint256"
        }
      ],
      "stateMutability": "view",
      "type": "function"
    },
    {
      "inputs": [],
      "name": "getNFTsForSale",
      "outputs": [
        {
          "internalType": "uint256[]",
          "name": "",
          "type": "uint256[]"
        }
      ],
      "stateMutability": "view",
      "type": "function"
    },
    {
      "inputs": [
        {
          "internalType": "uint256",
          "name": "nftId",
          "type": "uint256"
        }
      ],
      "name": "getNFTDetails",
      "outputs": [
        {
          "internalType": "uint256",
          "name": "purchasePrice",
          "type": "uint256"
        },
        {
          "internalType": "uint256",
          "name": "sellingPrice",
          "type": "uint256"
        },
        {
          "internalType": "bool",
          "name": "forSale",
          "type": "bool"
        }
      ],
      "stateMutability": "view",
      "type": "function"
    },
    {
      "inputs": [
        {
          "internalType": "address",
          "name": "customer",
          "type": "address"
        }
      ],
      "name": "getNFTsOfCustomer",
      "outputs": [
        {
          "internalType": "uint256[]",
          "name": "",
          "type": "uint256[]"
        }
      ],
      "stateMutability": "view",
      "type": "function"
    }
  ],
  "bytecode": "0x60806040523480156200001157600080fd5b506040516200338138038062003381833981810160405260c08110156200003757600080fd5b81019080805160405193929190846401000000008211156200005857600080fd5b9083019060208201858111156200006e57600080fd5b82516401000000008111828201881017156200008957600080fd5b82525081516020918201929091019080838360005b83811015620000b85781810151838201526020016200009e565b50505050905090810190601f168015620000e65780820380516001836020036101000a031916815260200191505b50604052602001805160405193929190846401000000008211156200010a57600080fd5b9083019060208201858111156200012057600080fd5b82516401000000008111828201881017156200013b57600080fd5b82525081516020918201929091019080838360005b838110156200016a57818101518382015260200162000150565b50505050905090810190601f168015620001985780820380516001836020036101000a031916815260200191505b50604081815260208301519083015160608401516080909401805192969195919284640100000000821115620001cd57600080fd5b908301906020820185811115620001e357600080fd5b8251640100000000811182820188101715620001fe57600080fd5b82525081516020918201929091019080838360005b838110156200022d57818101518382015260200162000213565b50505050905090810190601f1680156200025b5780820380516001836020036101000a031916815260200191505b5060405250879150869050620002917f01ffc9a700000000000000000000000000000000000000000000000000000000620003b4565b8151620002a69060079060208501906200059a565b508051620002bc9060089060208401906200059a565b50620002e87f80ac58cd00000000000000000000000000000000000000000000000000000000620003b4565b620003137f5b5e139f00000000000000000000000000000000000000000000000000000000620003b4565b6200033e7f780e9d6300000000000000000000000000000000000000000000000000000000620003b4565b506200036d90507f9f2df0fed2c77648de5860a4cc508cd0818c85b8b8a1ab4ceeef8d981c8956a68362000486565b60108490556011839055600d80546001600160a01b0319166001600160a01b0384161790558051620003a79060129060208401906200059a565b5050505050505062000636565b7fffffffff0000000000000000000000000000000000000000000000000000000080821614156200044657604080517f08c379a000000000000000000000000000000000000000000000000000000000815260206004820152601c60248201527f4552433136353a20696e76616c696420696e7465726661636520696400000000604482015290519081900360640190fd5b7fffffffff00000000000000000000000000000000000000000000000000000000166000908152600160208190526040909120805460ff19169091179055565b62000492828262000496565b5050565b600082815260208181526040909120620004bb918390620017f66200050f821b17901c565b156200049257620004cb6200052f565b6001600160a01b0316816001600160a01b0316837f2f8788117e7eff1d82e926ec794901d17c78024a50270940304540a733656f0d60405160405180910390a45050565b600062000526836001600160a01b03841662000533565b90505b92915050565b3390565b600062000541838362000582565b620005795750815460018181018455600084815260208082209093018490558454848252828601909352604090209190915562000529565b50600062000529565b60009081526001919091016020526040902054151590565b828054600181600116156101000203166002900490600052602060002090601f016020900481019282601f10620005dd57805160ff19168380011785556200060d565b828001600101855582156200060d579182015b828111156200060d578251825591602001919060010190620005f0565b506200061b9291506200061f565b5090565b5b808211156200061b576000815560010162000620565b612d3b80620006466000396000f3fe608060405234801561001057600080fd5b50600436106102325760003560e01c806370a0823111610130578063a22cb465116100b8578063d3f02f931161007c578063d3f02f93146107e6578063d539139314610812578063d547741f1461081a578063e985e9c514610846578063fb107a4f1461087457610232565b8063a22cb465146106b0578063b1888649146106de578063b88d4fde146106e6578063c87b56dd146107ac578063ca15c873146107c957610232565b806391d14854116100ff57806391d14854146105f657806391d859c01461062257806395d89b411461062a5780639c0bdd9714610632578063a217fddf146106a857610232565b806370a082311461054457806382260f351461056a5780639010d07c146105a757806391509a40146105ca57610232565b80632f2ff15d116101be5780634f6ccce7116101825780634f6ccce7146104b3578063569e35db146104d05780636352211e146104ed57806364d7f44f1461050a5780636c0360eb1461053c57610232565b80632f2ff15d146103d35780632f745c59146103ff57806336568abe1461042b57806336e986ef1461045757806342842e0e1461047d57610232565b80630b705578116102055780630b7055781461035657806318160ddd1461035e57806323b872dd14610378578063248a9ca3146103ae5780632dc34dc1146103cb57610232565b806301ffc9a71461023757806306fdde0314610272578063081812fc146102ef578063095ea7b314610328575b600080fd5b61025e6004803603602081101561024d57600080fd5b50356001600160e01b03191661087c565b604080519115158252519081900360200190f35b61027a61089f565b6040805160208082528351818301528351919283929083019185019080838360005b838110156102b457818101518382015260200161029c565b50505050905090810190601f1680156102e15780820380516001836020036101000a031916815260200191505b509250505060405180910390f35b61030c6004803603602081101561030557600080fd5b5035610935565b604080516001600160a01b039092168252519081900360200190f35b6103546004803603604081101561033e57600080fd5b506001600160a01b038135169060200135610997565b005b61030c610a72565b610366610a81565b60408051918252519081900360200190f35b6103546004803603606081101561038e57600080fd5b506001600160a01b03813581169160208101359091169060400135610a92565b610366600480360360208110156103c457600080fd5b5035610ae9565b610366610afe565b610354600480360360408110156103e957600080fd5b50803590602001356001600160a01b0316610b0a565b6103666004803603604081101561041557600080fd5b506001600160a01b038135169060200135610b76565b6103546004803603604081101561044157600080fd5b50803590602001356001600160a01b0316610ba1565b6103546004803603602081101561046d57600080fd5b50356001600160a01b0316610c02565b6103546004803603606081101561049357600080fd5b506001600160a01b03813581169160208101359091169060400135610d20565b610366600480360360208110156104c957600080fd5b5035610d3b565b610366600480360360208110156104e657600080fd5b5035610d51565b61030c6004803603602081101561050357600080fd5b5035610d66565b6103546004803603606081101561052057600080fd5b50803590602081013590604001356001600160a01b0316610d8e565b61027a610ec4565b6103666004803603602081101561055a57600080fd5b50356001600160a01b0316610f25565b6105876004803603602081101561058057600080fd5b5035610f8d565b604080519384526020840192909252151582820152519081900360600190f35b61030c600480360360408110156105bd57600080fd5b5080359060200135610fb2565b610354600480360360408110156105e057600080fd5b50803590602001356001600160a01b0316610fca565b61025e6004803603604081101561060c57600080fd5b50803590602001356001600160a01b0316611090565b6103666110a8565b61027a6110b4565b6106586004803603602081101561064857600080fd5b50356001600160a01b0316611115565b60408051602080825283518183015283519192839290830191858101910280838360005b8381101561069457818101518382015260200161067c565b505050509050019250505060405180910390f35b610366611181565b610354600480360360408110156106c657600080fd5b506001600160a01b0381351690602001351515611186565b61065861128b565b610354600480360360808110156106fc57600080fd5b6001600160a01b0382358116926020810135909116916040820135919081019060808101606082013564010000000081111561073757600080fd5b82018360208201111561074957600080fd5b8035906020019184600183028401116401000000008311171561076b57600080fd5b91908080601f0160208091040260200160405190810160405280939291908181526020018383808284376000920191909152509295506112e2945050505050565b61027a600480360360208110156107c257600080fd5b503561133a565b610366600480360360208110156107df57600080fd5b50356115bd565b610354600480360360408110156107fc57600080fd5b506001600160a01b0381351690602001356115d4565b610366611745565b6103546004803603604081101561083057600080fd5b50803590602001356001600160a01b0316611769565b61025e6004803603604081101561085c57600080fd5b506001600160a01b03813581169160200135166117c2565b6103666117f0565b6001600160e01b0319811660009081526001602052604090205460ff165b919050565b60078054604080516020601f600260001961010060018816150201909516949094049384018190048102820181019092528281526060939092909183018282801561092b5780601f106109005761010080835404028352916020019161092b565b820191906000526020600020905b81548152906001019060200180831161090e57829003601f168201915b5050505050905090565b60006109408261180b565b61097b5760405162461bcd60e51b815260040180806020018281038252602c815260200180612b5c602c913960400191505060405180910390fd5b506000908152600560205260409020546001600160a01b031690565b60006109a282610d66565b9050806001600160a01b0316836001600160a01b031614156109f55760405162461bcd60e51b8152600401808060200182810382526021815260200180612c0c6021913960400191505060405180910390fd5b806001600160a01b0316610a07611818565b6001600160a01b03161480610a285750610a2881610a23611818565b6117c2565b610a635760405162461bcd60e51b8152600401808060200182810382526038815260200180612aaf6038913960400191505060405180910390fd5b610a6d838361181c565b505050565b600d546001600160a01b031690565b6000610a8d600361188a565b905090565b610aa3610a9d611818565b82611895565b610ade5760405162461bcd60e51b8152600401808060200182810382526031815260200180612c2d6031913960400191505060405180910390fd5b610a6d838383611939565b60009081526020819052604090206002015490565b6000610a8d600c611a85565b600082815260208190526040902060020154610b2d90610b28611818565b611090565b610b685760405162461bcd60e51b815260040180806020018281038252602f8152602001806129ac602f913960400191505060405180910390fd5b610b728282611a89565b5050565b6001600160a01b0382166000908152600260205260408120610b989083611af2565b90505b92915050565b610ba9611818565b6001600160a01b0316816001600160a01b031614610bf85760405162461bcd60e51b815260040180806020018281038252602f815260200180612cb5602f913960400191505060405180910390fd5b610b728282611afe565b610c0c600c611b67565b6000610c18600c611a85565b9050610c2381610d66565b6001600160a01b0316336001600160a01b031614610c88576040805162461bcd60e51b815260206004820152601d60248201527f4f6e6c7920696e697469616c20707572636861736520616c6c6f776564000000604482015290519081900360640190fd5b610c9b610c9482610d66565b8383610a92565b610ca482611b70565b610cf457600e80546001810182556000919091527fbb7b4a454dc3493923482f07822329ed19e8244eff582cc204f8554c3620c3fd0180546001600160a01b0319166001600160a01b0384161790555b6001600160a01b0390911660009081526014602090815260408220805460018101825590835291200155565b610a6d838383604051806020016040528060008152506112e2565b600080610d49600384611bcb565b509392505050565b60009081526013602052604090206001015490565b6000610b9b82604051806060016040528060298152602001612b116029913960039190611be7565b600083815260136020526040902054826064606e830204820111610de35760405162461bcd60e51b8152600401808060200182810382526022815260200180612ce46022913960400191505060405180910390fd5b610e0f7f9f2df0fed2c77648de5860a4cc508cd0818c85b8b8a1ab4ceeef8d981c8956a6610b28611818565b15610e4b5760405162461bcd60e51b815260040180806020018281038252602f815260200180612c5e602f913960400191505060405180910390fd5b600084815260136020526040902060018082018590556002909101805460ff19169091179055610e7a84611bfe565b610eb457600f80546001810182556000919091527f8d1108e10bcb7c27dddfc02ed9d693a074039d026cf4ea4240b40f7d581ac802018490555b610ebe8285610997565b50505050565b600a8054604080516020601f600260001961010060018816150201909516949094049384018190048102820181019092528281526060939092909183018282801561092b5780601f106109005761010080835404028352916020019161092b565b60006001600160a01b038216610f6c5760405162461bcd60e51b815260040180806020018281038252602a815260200180612ae7602a913960400191505060405180910390fd5b6001600160a01b0382166000908152600260205260409020610b9b9061188a565b600090815260136020526040902080546001820154600290920154909260ff90911690565b6000828152602081905260408120610b989083611af2565b601154610fd7600b611a85565b10611029576040805162461bcd60e51b815260206004820152601b60248201527f4d6178696d756d206e6674206c696d6974206578636565646564210000000000604482015290519081900360640190fd5b6103e8826110356110a8565b0111156110735760405162461bcd60e51b8152600401808060200182810382526028815260200180612c8d6028913960400191505060405180910390fd5b60005b82811015610a6d5761108782611c3d565b50600101611076565b6000828152602081905260408120610b989083611db2565b6000610a8d600b611a85565b60088054604080516020601f600260001961010060018816150201909516949094049384018190048102820181019092528281526060939092909183018282801561092b5780601f106109005761010080835404028352916020019161092b565b6001600160a01b03811660009081526014602090815260409182902080548351818402810184019094528084526060939283018282801561117557602002820191906000526020600020905b815481526020019060010190808311611161575b50505050509050919050565b600081565b61118e611818565b6001600160a01b0316826001600160a01b031614156111f4576040805162461bcd60e51b815260206004820152601960248201527f4552433732313a20617070726f766520746f2063616c6c657200000000000000604482015290519081900360640190fd5b8060066000611201611818565b6001600160a01b03908116825260208083019390935260409182016000908120918716808252919093529120805460ff191692151592909217909155611245611818565b6001600160a01b03167f17307eab39ab6107e8899845ad3d59bd9653f200f220920489ca2b5937696c318360405180821515815260200191505060405180910390a35050565b6060600f80548060200260200160405190810160405280929190818152602001828054801561092b57602002820191906000526020600020905b8154815260200190600101908083116112c5575050505050905090565b6112f36112ed611818565b83611895565b61132e5760405162461bcd60e51b8152600401808060200182810382526031815260200180612c2d6031913960400191505060405180910390fd5b610ebe84848484611dc7565b60606113458261180b565b6113805760405162461bcd60e51b815260040180806020018281038252602f815260200180612bdd602f913960400191505060405180910390fd5b60008281526009602090815260409182902080548351601f60026000196101006001861615020190931692909204918201849004840281018401909452808452606093928301828280156114155780601f106113ea57610100808354040283529160200191611415565b820191906000526020600020905b8154815290600101906020018083116113f857829003601f168201915b505050505090506060611426610ec4565b905080516000141561143a5750905061089a565b8151156114fb5780826040516020018083805190602001908083835b602083106114755780518252601f199092019160209182019101611456565b51815160209384036101000a600019018019909216911617905285519190930192850191508083835b602083106114bd5780518252601f19909201916020918201910161149e565b6001836020036101000a038019825116818451168082178552505050505050905001925050506040516020818303038152906040529250505061089a565b8061150585611e19565b6040516020018083805190602001908083835b602083106115375780518252601f199092019160209182019101611518565b51815160209384036101000a600019018019909216911617905285519190930192850191508083835b6020831061157f5780518252601f199092019160209182019101611560565b6001836020036101000a0380198251168184511680821785525050505050509050019250505060405160208183030381529060405292505050919050565b6000818152602081905260408120610b9b9061188a565b60008181526013602052604090208054600190910154829190806064606e8402048301116116335760405162461bcd60e51b8152600401808060200182810382526022815260200180612ce46022913960400191505060405180910390fd5b600061163e85610d66565b60008681526013602052604090206001015490915061165e828888610a92565b61166787611b70565b6116b757600e80546001810182556000919091527fbb7b4a454dc3493923482f07822329ed19e8244eff582cc204f8554c3620c3fd0180546001600160a01b0319166001600160a01b0389161790555b6001600160a01b0387166000908152601460209081526040822080546001810182559083529120018690556116ec8287611ef4565b6116f586612013565b604080516060810182529182526000602080840182815284840183815299835260139091529190209151825551600182015594516002909501805460ff1916951515959095179094555050505050565b7f9f2df0fed2c77648de5860a4cc508cd0818c85b8b8a1ab4ceeef8d981c8956a681565b60008281526020819052604090206002015461178790610b28611818565b610bf85760405162461bcd60e51b8152600401808060200182810382526030815260200180612a5d6030913960400191505060405180910390fd5b6001600160a01b03918216600090815260066020908152604080832093909416825291909152205460ff1690565b60105490565b6000610b98836001600160a01b0384166120b4565b6000610b9b6003836120fe565b3390565b600081815260056020526040902080546001600160a01b0319166001600160a01b038416908117909155819061185182610d66565b6001600160a01b03167f8c5be1e5ebec7d5bd14f71427d1e84f3dd0314c0f7b2291e5b200ac8c7c3b92560405160405180910390a45050565b6000610b9b82611a85565b60006118a08261180b565b6118db5760405162461bcd60e51b815260040180806020018281038252602c815260200180612a31602c913960400191505060405180910390fd5b60006118e683610d66565b9050806001600160a01b0316846001600160a01b031614806119215750836001600160a01b031661191684610935565b6001600160a01b0316145b80611931575061193181856117c2565b949350505050565b826001600160a01b031661194c82610d66565b6001600160a01b0316146119915760405162461bcd60e51b8152600401808060200182810382526029815260200180612bb46029913960400191505060405180910390fd5b6001600160a01b0382166119d65760405162461bcd60e51b8152600401808060200182810382526024815260200180612a0d6024913960400191505060405180910390fd5b6119e1838383610a6d565b6119ec60008261181c565b6001600160a01b0383166000908152600260205260409020611a0e908261210a565b506001600160a01b0382166000908152600260205260409020611a319082612116565b50611a3e60038284612122565b5080826001600160a01b0316846001600160a01b03167fddf252ad1be2c89b69c2b068fc378daa952ba7f163c4a11628f55a4df523b3ef60405160405180910390a4505050565b5490565b6000828152602081905260409020611aa190826117f6565b15610b7257611aae611818565b6001600160a01b0316816001600160a01b0316837f2f8788117e7eff1d82e926ec794901d17c78024a50270940304540a733656f0d60405160405180910390a45050565b6000610b988383612138565b6000828152602081905260409020611b16908261219c565b15610b7257611b23611818565b6001600160a01b0316816001600160a01b0316837ff6391f5c32d9c69d2a47ea670b442974b53935d1edc7fd64eb21e047a839171b60405160405180910390a45050565b80546001019055565b6000805b600e54811015611bc257826001600160a01b0316600e8281548110611b9557fe5b6000918252602090912001546001600160a01b03161415611bba57600191505061089a565b600101611b74565b50600092915050565b6000808080611bda86866121b1565b9097909650945050505050565b6000611bf484848461222c565b90505b9392505050565b6000805b600f54811015611bc25782600f8281548110611c1a57fe5b90600052602060002001541415611c3557600191505061089a565b600101611c02565b6000611c6b7f9f2df0fed2c77648de5860a4cc508cd0818c85b8b8a1ab4ceeef8d981c8956a6610b28611818565b611ca65760405162461bcd60e51b8152600401808060200182810382526022815260200180612a8d6022913960400191505060405180910390fd5b611cb0600b611b67565b6000611cbc600b611a85565b9050611cc883826122f6565b6012805460408051602060026001851615610100026000190190941693909304601f8101849004840282018401909252818152611d6093859391929091830182828015611d565780601f10611d2b57610100808354040283529160200191611d56565b820191906000526020600020905b815481529060010190602001808311611d3957829003601f168201915b5050505050612424565b60408051606081018252601054815260006020808301828152838501838152868452601390925293909120915182559151600182015590516002909101805460ff191691151591909117905592915050565b6000610b98836001600160a01b038416612487565b611dd2848484611939565b611dde8484848461249f565b610ebe5760405162461bcd60e51b81526004018080602001828103825260328152602001806129db6032913960400191505060405180910390fd5b606081611e3e57506040805180820190915260018152600360fc1b602082015261089a565b8160005b8115611e5657600101600a82049150611e42565b60608167ffffffffffffffff81118015611e6f57600080fd5b506040519080825280601f01601f191660200182016040528015611e9a576020820181803683370190505b50859350905060001982015b8315611eeb57600a840660300160f81b82828060019003935081518110611ec957fe5b60200101906001600160f81b031916908160001a905350600a84049350611ea6565b50949350505050565b6001600160a01b038216600090815260146020526040812054905b81811015610ebe576001600160a01b0384166000908152601460205260409020805484919083908110611f3e57fe5b9060005260206000200154141561200b57600181015b82811015611fd2576001600160a01b0385166000908152601460205260409020805482908110611f8057fe5b906000526020600020015460146000876001600160a01b03166001600160a01b031681526020019081526020016000206001830381548110611fbe57fe5b600091825260209091200155600101611f54565b506001600160a01b0384166000908152601460205260409020805480611ff457fe5b600190038181906000526020600020016000905590555b600101611f0f565b600f5460005b81811015610a6d5782600f828154811061202f57fe5b906000526020600020015414156120ac57600181015b8281101561208957600f818154811061205a57fe5b9060005260206000200154600f600183038154811061207557fe5b600091825260209091200155600101612045565b50600f80548061209557fe5b600190038181906000526020600020016000905590555b600101612019565b60006120c08383612487565b6120f657508154600181810184556000848152602080822090930184905584548482528286019093526040902091909155610b9b565b506000610b9b565b6000610b988383612487565b6000610b988383612607565b6000610b9883836120b4565b6000611bf484846001600160a01b0385166126cd565b8154600090821061217a5760405162461bcd60e51b815260040180806020018281038252602281526020018061298a6022913960400191505060405180910390fd5b82600001828154811061218957fe5b9060005260206000200154905092915050565b6000610b98836001600160a01b038416612607565b8154600090819083106121f55760405162461bcd60e51b8152600401808060200182810382526022815260200180612b3a6022913960400191505060405180910390fd5b600084600001848154811061220657fe5b906000526020600020906002020190508060000154816001015492509250509250929050565b600082815260018401602052604081205482816122c75760405162461bcd60e51b81526004018080602001828103825283818151815260200191508051906020019080838360005b8381101561228c578181015183820152602001612274565b50505050905090810190601f1680156122b95780820380516001836020036101000a031916815260200191505b509250505060405180910390fd5b508460000160018203815481106122da57fe5b9060005260206000209060020201600101549150509392505050565b6001600160a01b038216612351576040805162461bcd60e51b815260206004820181905260248201527f4552433732313a206d696e7420746f20746865207a65726f2061646472657373604482015290519081900360640190fd5b61235a8161180b565b156123ac576040805162461bcd60e51b815260206004820152601c60248201527f4552433732313a20746f6b656e20616c7265616479206d696e74656400000000604482015290519081900360640190fd5b6123b860008383610a6d565b6001600160a01b03821660009081526002602052604090206123da9082612116565b506123e760038284612122565b5060405181906001600160a01b038416906000907fddf252ad1be2c89b69c2b068fc378daa952ba7f163c4a11628f55a4df523b3ef908290a45050565b61242d8261180b565b6124685760405162461bcd60e51b815260040180806020018281038252602c815260200180612b88602c913960400191505060405180910390fd5b60008281526009602090815260409091208251610a6d928401906128f6565b60009081526001919091016020526040902054151590565b60006124b3846001600160a01b0316612764565b6124bf57506001611931565b60606125cd630a85bd0160e11b6124d4611818565b88878760405160240180856001600160a01b03168152602001846001600160a01b0316815260200183815260200180602001828103825283818151815260200191508051906020019080838360005b8381101561253b578181015183820152602001612523565b50505050905090810190601f1680156125685780820380516001836020036101000a031916815260200191505b5095505050505050604051602081830303815290604052906001600160e01b0319166020820180516001600160e01b0383818316178352505050506040518060600160405280603281526020016129db603291396001600160a01b038816919061276a565b905060008180602001905160208110156125e657600080fd5b50516001600160e01b031916630a85bd0160e11b1492505050949350505050565b600081815260018301602052604081205480156126c3578354600019808301919081019060009087908390811061263a57fe5b906000526020600020015490508087600001848154811061265757fe5b60009182526020808320909101929092558281526001898101909252604090209084019055865487908061268757fe5b60019003818190600052602060002001600090559055866001016000878152602001908152602001600020600090556001945050505050610b9b565b6000915050610b9b565b600082815260018401602052604081205480612732575050604080518082018252838152602080820184815286546001818101895560008981528481209551600290930290950191825591519082015586548684528188019092529290912055611bf7565b8285600001600183038154811061274557fe5b9060005260206000209060020201600101819055506000915050611bf7565b3b151590565b6060611bf484846000858561277e85612764565b6127cf576040805162461bcd60e51b815260206004820152601d60248201527f416464726573733a2063616c6c20746f206e6f6e2d636f6e7472616374000000604482015290519081900360640190fd5b60006060866001600160a01b031685876040518082805190602001908083835b6020831061280e5780518252601f1990920191602091820191016127ef565b6001836020036101000a03801982511681845116808217855250505050505090500191505060006040518083038185875af1925050503d8060008114612870576040519150601f19603f3d011682016040523d82523d6000602084013e612875565b606091505b5091509150612885828286612890565b979650505050505050565b6060831561289f575081611bf7565b8251156128af5782518084602001fd5b60405162461bcd60e51b815260206004820181815284516024840152845185939192839260440191908501908083836000831561228c578181015183820152602001612274565b828054600181600116156101000203166002900490600052602060002090601f016020900481019282601f1061293757805160ff1916838001178555612964565b82800160010185558215612964579182015b82811115612964578251825591602001919060010190612949565b50612970929150612974565b5090565b5b80821115612970576000815560010161297556fe456e756d657261626c655365743a20696e646578206f7574206f6620626f756e6473416363657373436f6e74726f6c3a2073656e646572206d75737420626520616e2061646d696e20746f206772616e744552433732313a207472616e7366657220746f206e6f6e20455243373231526563656976657220696d706c656d656e7465724552433732313a207472616e7366657220746f20746865207a65726f20616464726573734552433732313a206f70657261746f7220717565727920666f72206e6f6e6578697374656e7420746f6b656e416363657373436f6e74726f6c3a2073656e646572206d75737420626520616e2061646d696e20746f207265766f6b6555736572206d7573742068617665206d696e74657220726f6c6520746f206d696e744552433732313a20617070726f76652063616c6c6572206973206e6f74206f776e6572206e6f7220617070726f76656420666f7220616c6c4552433732313a2062616c616e636520717565727920666f7220746865207a65726f20616464726573734552433732313a206f776e657220717565727920666f72206e6f6e6578697374656e7420746f6b656e456e756d657261626c654d61703a20696e646578206f7574206f6620626f756e64734552433732313a20617070726f76656420717565727920666f72206e6f6e6578697374656e7420746f6b656e4552433732314d657461646174613a2055524920736574206f66206e6f6e6578697374656e7420746f6b656e4552433732313a207472616e73666572206f6620746f6b656e2074686174206973206e6f74206f776e4552433732314d657461646174613a2055524920717565727920666f72206e6f6e6578697374656e7420746f6b656e4552433732313a20617070726f76616c20746f2063757272656e74206f776e65724552433732313a207472616e736665722063616c6c6572206973206e6f74206f776e6572206e6f7220617070726f76656446756e6374696f6e616c697479206f6e6c7920616c6c6f77656420666f72207365636f6e64617279206d61726b65744e756d626572206f66206e6674732065786365656473206d6178696d756d206e667420636f756e74416363657373436f6e74726f6c3a2063616e206f6e6c792072656e6f756e636520726f6c657320666f722073656c6652652d73656c6c696e67207072696365206973206d6f7265207468616e2031313025a26469706673582212203c5f593c5e8b1e997a822c98365216ddea638e385267ceb1c0d50c7a3a1508b964736f6c634300060c0033",
  "immutableReferences": {},
  "source": "pragma solidity ^0.6.0;\n\nimport \"@openzeppelin/contracts/utils/Context.sol\";\nimport \"@openzeppelin/contracts/access/AccessControl.sol\";\nimport \"@openzeppelin/contracts/token/ERC721/ERC721.sol\";\nimport \"@openzeppelin/contracts/utils/Counters.sol\";\n\ncontract DeflyNFT is Context, AccessControl, ERC721 {\n    using Counters for Counters.Counter;\n\n    Counters.Counter private _nftIds;\n    Counters.Counter private _saleNftId;\n\n    bytes32 public constant MINTER_ROLE = keccak256(\"MINTER_ROLE\");\n\n    struct NFTDetails {\n        uint256 purchasePrice;\n        uint256 sellingPrice;\n        bool forSale;\n    }\n\n    address private _organiser;\n    address[] private customers;\n    uint256[] private nftsForSale;\n    uint256 private _nftPrice;\n    uint256 private _totalSupply;\n    string private _fileUrl;\n\n    mapping(uint256 => NFTDetails) private _nftDetails;\n    mapping(address => uint256[]) private purchasedNfts;\n\n    constructor(\n        string memory deflyName,\n        string memory DeflySymbol,\n        uint256 nftPrice,\n        uint256 totalSupply,\n        address organiser,\n        string memory fileUrl\n    ) public ERC721(deflyName, DeflySymbol) {\n        _setupRole(MINTER_ROLE, organiser);\n        _nftPrice = nftPrice;\n        _totalSupply = totalSupply;\n        _organiser = organiser;\n        _fileUrl = fileUrl;\n    }\n\n    modifier isValidNFTCount {\n        require(\n            _nftIds.current() < _totalSupply,\n            \"Maximum nft limit exceeded!\"\n        );\n        _;\n    }\n\n    modifier isMinterRole {\n        require(\n            hasRole(MINTER_ROLE, _msgSender()),\n            \"User must have minter role to mint\"\n        );\n        _;\n    }\n\n    modifier isValidSellAmount(uint256 nftId) {\n        uint256 purchasePrice = _nftDetails[nftId].purchasePrice;\n        uint256 sellingPrice = _nftDetails[nftId].sellingPrice;\n\n        require(\n            purchasePrice + ((purchasePrice * 110) / 100) > sellingPrice,\n            \"Re-selling price is more than 110%\"\n        );\n        _;\n    }\n\n    /*\n     * Mint new nfts and assign it to operator\n     * Access controlled by minter only\n     * Returns new nftId\n     */\n    function mint(address operator)\n        internal\n        virtual\n        isMinterRole\n        returns (uint256)\n    {\n        _nftIds.increment();\n        uint256 newnftId = _nftIds.current();\n        _mint(operator, newnftId);\n        _setTokenURI(newnftId, _fileUrl);\n\n        _nftDetails[newnftId] = NFTDetails({\n            purchasePrice: _nftPrice,\n            sellingPrice: 0,\n            forSale: false\n        });\n\n        return newnftId;\n    }\n\n    /*\n     * Bulk mint specified number of nfts to assign it to a operator\n     * Modifier to check the nft count is less than total supply\n     */\n    function bulkMintNFTs(uint256 numOfNfts, address operator)\n        public\n        virtual\n        isValidNFTCount\n    {\n        require(\n            (nftCounts() + numOfNfts) <= 1000,\n            \"Number of nfts exceeds maximum nft count\"\n        );\n\n        for (uint256 i = 0; i < numOfNfts; i++) {\n            mint(operator);\n        }\n    }\n\n    /*\n     * Primary purchase for the nfts\n     * Adds new customer if not exists\n     * Adds buyer to nfts mapping\n     * Update nft details\n     */\n    function transferNFT(address buyer) public {\n        _saleNftId.increment();\n        uint256 salenftId = _saleNftId.current();\n\n        require(\n            msg.sender == ownerOf(salenftId),\n            \"Only initial purchase allowed\"\n        );\n\n        transferFrom(ownerOf(salenftId), buyer, salenftId);\n\n        if (!isCustomerExist(buyer)) {\n            customers.push(buyer);\n        }\n        purchasedNfts[buyer].push(salenftId);\n    }\n\n    /*\n     * Secondary purchase for the nfts\n     * Modifier to validate that the selling price shouldn't exceed 110% of purchase price for peer to peer transfers\n     * Adds new customer if not exists\n     * Adds buyer to nfts mapping\n     * Remove nft from the seller and from sale\n     * Update nft details\n     */\n    function secondaryTransferNFT(address buyer, uint256 salenftId)\n        public\n        isValidSellAmount(salenftId)\n    {\n        address seller = ownerOf(salenftId);\n        uint256 sellingPrice = _nftDetails[salenftId].sellingPrice;\n\n        transferFrom(seller, buyer, salenftId);\n\n        if (!isCustomerExist(buyer)) {\n            customers.push(buyer);\n        }\n\n        purchasedNfts[buyer].push(salenftId);\n\n        removeNFTFromCustomer(seller, salenftId);\n        removeNFTFromSale(salenftId);\n\n        _nftDetails[salenftId] = NFTDetails({\n            purchasePrice: sellingPrice,\n            sellingPrice: 0,\n            forSale: false\n        });\n    }\n\n    /*\n     * Add nft for sale with its details\n     * Validate that the selling price shouldn't exceed 110% of purchase price\n     * Organiser can not use secondary market sale\n     */\n    function setSaleDetails(\n        uint256 nftId,\n        uint256 sellingPrice,\n        address operator\n    ) public {\n        uint256 purchasePrice = _nftDetails[nftId].purchasePrice;\n\n        require(\n            purchasePrice + ((purchasePrice * 110) / 100) > sellingPrice,\n            \"Re-selling price is more than 110%\"\n        );\n\n        // Should not be an organiser\n        require(\n            !hasRole(MINTER_ROLE, _msgSender()),\n            \"Functionality only allowed for secondary market\"\n        );\n\n        _nftDetails[nftId].sellingPrice = sellingPrice;\n        _nftDetails[nftId].forSale = true;\n\n        if (!isSaleNFTAvailable(nftId)) {\n            nftsForSale.push(nftId);\n        }\n\n        approve(operator, nftId);\n    }\n\n    // Get nft actual price\n    function getNFTPrice() public view returns (uint256) {\n        return _nftPrice;\n    }\n\n    // Get organiser's address\n    function getOrganiser() public view returns (address) {\n        return _organiser;\n    }\n\n    // Get current nftId\n    function nftCounts() public view returns (uint256) {\n        return _nftIds.current();\n    }\n\n    // Get next sale nftId\n    function getNextSalenftId() public view returns (uint256) {\n        return _saleNftId.current();\n    }\n\n    // Get selling price for the nft\n    function getSellingPrice(uint256 nftId) public view returns (uint256) {\n        return _nftDetails[nftId].sellingPrice;\n    }\n\n    // Get all nfts available for sale\n    function getNFTsForSale() public view returns (uint256[] memory) {\n        return nftsForSale;\n    }\n\n    // Get nft details\n    function getNFTDetails(uint256 nftId)\n        public\n        view\n        returns (\n            uint256 purchasePrice,\n            uint256 sellingPrice,\n            bool forSale\n        )\n    {\n        return (\n            _nftDetails[nftId].purchasePrice,\n            _nftDetails[nftId].sellingPrice,\n            _nftDetails[nftId].forSale\n        );\n    }\n\n    // Get all nfts owned by a customer\n    function getNFTsOfCustomer(address customer) public view returns (uint256[] memory){\n        return purchasedNfts[customer];\n    }\n\n    // Utility function to check if customer exists to avoid redundancy\n    function isCustomerExist(address buyer) internal view returns (bool) {\n        for (uint256 i = 0; i < customers.length; i++) {\n            if (customers[i] == buyer) {\n                return true;\n            }\n        }\n        return false;\n    }\n\n    // Utility function used to check if nft is already for sale\n    function isSaleNFTAvailable(uint256 nftId)\n        internal\n        view\n        returns (bool)\n    {\n        for (uint256 i = 0; i < nftsForSale.length; i++) {\n            if (nftsForSale[i] == nftId) {\n                return true;\n            }\n        }\n        return false;\n    }\n\n    // Utility function to remove nft owned by customer from customer to nft mapping\n    function removeNFTFromCustomer(address customer, uint256 nftId)\n        internal\n    {\n        uint256 numOfNfts = purchasedNfts[customer].length;\n\n        for (uint256 i = 0; i < numOfNfts; i++) {\n            if (purchasedNfts[customer][i] == nftId) {\n                for (uint256 j = i + 1; j < numOfNfts; j++) {\n                    purchasedNfts[customer][j - 1] = purchasedNfts[\n                        customer\n                    ][j];\n                }\n                purchasedNfts[customer].pop();\n            }\n        }\n    }\n\n    // Utility function to remove nft from sale list\n    function removeNFTFromSale(uint256 nftId) internal {\n        uint256 numOfNfts = nftsForSale.length;\n        for (uint256 i = 0; i < numOfNfts; i++) {\n            if (nftsForSale[i] == nftId) {\n                for (uint256 j = i + 1; j < numOfNfts; j++) {\n                    nftsForSale[j - 1] = nftsForSale[j];\n                }\n                nftsForSale.pop();\n            }\n        }\n    }\n}\n",
  "sourcePath": "E:\\DigiMarkDeveloper\\nft_marketplace_2021-master\\contracts\\DeflyNFT.sol",
  "compiler": {
    "name": "solc",
    "version": "0.6.12+commit.27d51765.Emscripten.clang"
  },
  "schemaVersion": "3.4.3",
  "updatedAt": "2022-01-06T07:07:53.526Z",
  "devdoc": {
    "kind": "dev",
    "methods": {
      "approve(address,uint256)": {
        "details": "See {IERC721-approve}."
      },
      "balanceOf(address)": {
        "details": "See {IERC721-balanceOf}."
      },
      "baseURI()": {
        "details": "Returns the base URI set via {_setBaseURI}. This will be automatically added as a prefix in {tokenURI} to each token's URI, or to the token ID if no specific URI is set for that token ID."
      },
      "getApproved(uint256)": {
        "details": "See {IERC721-getApproved}."
      },
      "getRoleAdmin(bytes32)": {
        "details": "Returns the admin role that controls `role`. See {grantRole} and {revokeRole}. To change a role's admin, use {_setRoleAdmin}."
      },
      "getRoleMember(bytes32,uint256)": {
        "details": "Returns one of the accounts that have `role`. `index` must be a value between 0 and {getRoleMemberCount}, non-inclusive. Role bearers are not sorted in any particular way, and their ordering may change at any point. WARNING: When using {getRoleMember} and {getRoleMemberCount}, make sure you perform all queries on the same block. See the following https://forum.openzeppelin.com/t/iterating-over-elements-on-enumerableset-in-openzeppelin-contracts/2296[forum post] for more information."
      },
      "getRoleMemberCount(bytes32)": {
        "details": "Returns the number of accounts that have `role`. Can be used together with {getRoleMember} to enumerate all bearers of a role."
      },
      "grantRole(bytes32,address)": {
        "details": "Grants `role` to `account`. If `account` had not been already granted `role`, emits a {RoleGranted} event. Requirements: - the caller must have ``role``'s admin role."
      },
      "hasRole(bytes32,address)": {
        "details": "Returns `true` if `account` has been granted `role`."
      },
      "isApprovedForAll(address,address)": {
        "details": "See {IERC721-isApprovedForAll}."
      },
      "name()": {
        "details": "See {IERC721Metadata-name}."
      },
      "ownerOf(uint256)": {
        "details": "See {IERC721-ownerOf}."
      },
      "renounceRole(bytes32,address)": {
        "details": "Revokes `role` from the calling account. Roles are often managed via {grantRole} and {revokeRole}: this function's purpose is to provide a mechanism for accounts to lose their privileges if they are compromised (such as when a trusted device is misplaced). If the calling account had been granted `role`, emits a {RoleRevoked} event. Requirements: - the caller must be `account`."
      },
      "revokeRole(bytes32,address)": {
        "details": "Revokes `role` from `account`. If `account` had been granted `role`, emits a {RoleRevoked} event. Requirements: - the caller must have ``role``'s admin role."
      },
      "safeTransferFrom(address,address,uint256)": {
        "details": "See {IERC721-safeTransferFrom}."
      },
      "safeTransferFrom(address,address,uint256,bytes)": {
        "details": "See {IERC721-safeTransferFrom}."
      },
      "setApprovalForAll(address,bool)": {
        "details": "See {IERC721-setApprovalForAll}."
      },
      "supportsInterface(bytes4)": {
        "details": "See {IERC165-supportsInterface}. Time complexity O(1), guaranteed to always use less than 30 000 gas."
      },
      "symbol()": {
        "details": "See {IERC721Metadata-symbol}."
      },
      "tokenByIndex(uint256)": {
        "details": "See {IERC721Enumerable-tokenByIndex}."
      },
      "tokenOfOwnerByIndex(address,uint256)": {
        "details": "See {IERC721Enumerable-tokenOfOwnerByIndex}."
      },
      "tokenURI(uint256)": {
        "details": "See {IERC721Metadata-tokenURI}."
      },
      "totalSupply()": {
        "details": "See {IERC721Enumerable-totalSupply}."
      },
      "transferFrom(address,address,uint256)": {
        "details": "See {IERC721-transferFrom}."
      }
    },
    "version": 1
  },
  "userdoc": {
    "kind": "user",
    "methods": {},
    "version": 1
  }
}