{
  "contractName": "DeflyMarketplace",
  "abi": [
    {
      "inputs": [
        {
          "internalType": "contract DeflyToken",
          "name": "token",
          "type": "address"
        },
        {
          "internalType": "contract DeflyNFT",
          "name": "defly",
          "type": "address"
        }
      ],
      "stateMutability": "nonpayable",
      "type": "constructor"
    },
    {
      "anonymous": false,
      "inputs": [
        {
          "indexed": true,
          "internalType": "address",
          "name": "buyer",
          "type": "address"
        },
        {
          "indexed": false,
          "internalType": "address",
          "name": "seller",
          "type": "address"
        },
        {
          "indexed": false,
          "internalType": "uint256",
          "name": "nftId",
          "type": "uint256"
        }
      ],
      "name": "Purchase",
      "type": "event"
    },
    {
      "inputs": [],
      "name": "purchaseNFT",
      "outputs": [],
      "stateMutability": "nonpayable",
      "type": "function"
    },
    {
      "inputs": [
        {
          "internalType": "uint256",
          "name": "nftId",
          "type": "uint256"
        }
      ],
      "name": "secondaryPurchase",
      "outputs": [],
      "stateMutability": "nonpayable",
      "type": "function"
    }
  ],
  "bytecode": "0x608060405234801561001057600080fd5b506040516106093803806106098339818101604052604081101561003357600080fd5b508051602091820151600080546001600160a01b038085166001600160a01b0319928316179092556001805483851692169190911790819055604080517f0b7055780000000000000000000000000000000000000000000000000000000081529051949593949190921692630b7055789260048082019391829003018186803b1580156100bf57600080fd5b505afa1580156100d3573d6000803e3d6000fd5b505050506040513d60208110156100e957600080fd5b5051600280546001600160a01b0319166001600160a01b03909216919091179055506104ed90508061011c6000396000f3fe608060405234801561001057600080fd5b50600436106100365760003560e01c80632eeac4c31461003b578063613b4d321461005a575b600080fd5b6100586004803603602081101561005157600080fd5b5035610062565b005b610058610344565b600154604080516331a9108f60e11b81526004810184905290516000926001600160a01b031691636352211e916024808301926020929190829003018186803b1580156100ae57600080fd5b505afa1580156100c2573d6000803e3d6000fd5b505050506040513d60208110156100d857600080fd5b50516001546040805163569e35db60e01b815260048101869052905192935033926000926001600160a01b03169163569e35db916024808301926020929190829003018186803b15801561012b57600080fd5b505afa15801561013f573d6000803e3d6000fd5b505050506040513d602081101561015557600080fd5b505160008054604080516323b872dd60e01b81526001600160a01b03878116600483015288811660248301526064600a87028190048088036044850152935196975092959316936323b872dd93828401936020939192918390030190829087803b1580156101c257600080fd5b505af11580156101d6573d6000803e3d6000fd5b505050506040513d60208110156101ec57600080fd5b505060008054600254604080516323b872dd60e01b81526001600160a01b038881166004830152928316602482015260448101869052905191909216926323b872dd92606480820193602093909283900390910190829087803b15801561025257600080fd5b505af1158015610266573d6000803e3d6000fd5b505050506040513d602081101561027c57600080fd5b50506001546040805163d3f02f9360e01b81526001600160a01b038681166004830152602482018990529151919092169163d3f02f9391604480830192600092919082900301818387803b1580156102d357600080fd5b505af11580156102e7573d6000803e3d6000fd5b50505050826001600160a01b03167f22e3ae3a20c49dce14046235895c7a3ffc0a6a5f3577c370177ad45fa619485d858760405180836001600160a01b031681526020018281526020019250505060405180910390a25050505050565b6000546002546001546040805163fb107a4f60e01b8152905133946001600160a01b03908116946323b872dd9487949183169392169163fb107a4f91600480820192602092909190829003018186803b1580156103a057600080fd5b505afa1580156103b4573d6000803e3d6000fd5b505050506040513d60208110156103ca57600080fd5b5051604080516001600160e01b031960e087901b1681526001600160a01b0394851660048201529290931660248301526044820152905160648083019260209291908290030181600087803b15801561042257600080fd5b505af1158015610436573d6000803e3d6000fd5b505050506040513d602081101561044c57600080fd5b5050600154604080516336e986ef60e01b81526001600160a01b038481166004830152915191909216916336e986ef91602480830192600092919082900301818387803b15801561049c57600080fd5b505af11580156104b0573d6000803e3d6000fd5b505050505056fea26469706673582212201767c5c150e749f207fd2bb21e883c95592da5bd3d89b03563a34d626eddcfaa64736f6c634300060c0033",
  "immutableReferences": {},
  "source": "pragma solidity ^0.6.0;\n\nimport \"./DeflyNFT.sol\";\nimport \"./DeflyToken.sol\";\n\ncontract DeflyMarketplace {\n    DeflyToken private _token;\n    DeflyNFT private _defly;\n\n    address private _organiser;\n\n    constructor(DeflyToken token, DeflyNFT defly) public {\n        _token = token;\n        _defly = defly;\n        _organiser = _defly.getOrganiser();\n    }\n\n    event Purchase(address indexed buyer, address seller, uint256 nftId);\n\n    // Purchase nfts from the organiser directly\n    function purchaseNFT() public {\n        address buyer = msg.sender;\n\n        _token.transferFrom(buyer, _organiser, _defly.getNFTPrice());\n\n        _defly.transferNFT(buyer);\n    }\n\n    // Purchase nft from the secondary market hosted by organiser\n    function secondaryPurchase(uint256 nftId) public {\n        address seller = _defly.ownerOf(nftId);\n        address buyer = msg.sender;\n        uint256 sellingPrice = _defly.getSellingPrice(nftId);\n        uint256 commision = (sellingPrice * 10) / 100;\n\n        _token.transferFrom(buyer, seller, sellingPrice - commision);\n        _token.transferFrom(buyer, _organiser, commision);\n\n        _defly.secondaryTransferNFT(buyer, nftId);\n\n        emit Purchase(buyer, seller, nftId);\n    }\n}\n",
  "sourcePath": "E:\\DigiMarkDeveloper\\nft_marketplace_2021-master\\contracts\\DeflyMarketplace.sol",
  "compiler": {
    "name": "solc",
    "version": "0.6.12+commit.27d51765.Emscripten.clang"
  },
  "schemaVersion": "3.4.3",
  "updatedAt": "2022-01-06T07:07:53.505Z",
  "devdoc": {
    "kind": "dev",
    "methods": {},
    "version": 1
  },
  "userdoc": {
    "kind": "user",
    "methods": {},
    "version": 1
  }
}